:100000000C9461000C9473000C9473000C947300B6
:100010000C9473000C9473000C9473000C94730094
:100020000C9473000C9473000C9473000C94730084
:100030000C9473000C9473000C9473000C94730074
:100040000C94A6010C9473000C9473000C94730030
:100050000C9473000C9473000C9473000C94730054
:100060000C9473000C94730000000000240027001F
:100070002A0000000000250028002B0000000000DE
:1000800023002600290004040404040404040202DA
:100090000202020203030303030301020408102007
:1000A0004080010204081020010204081020000012
:1000B0000008000201000003040700000000000027
:1000C000000011241FBECFEFD8E0DEBFCDBF21E07E
:1000D000A0E0B1E001C01D92A930B207E1F70E9493
:1000E000F0010C94E9020C940000833081F028F4B4
:1000F000813099F08230A1F008958730A9F08830DE
:10010000B9F08430D1F4809180008F7D03C080915C
:1001100080008F7780938000089584B58F7702C028
:1001200084B58F7D84BD08958091B0008F7703C022
:100130008091B0008F7D8093B0000895CF93DF93BE
:10014000282F30E0F901E255FF4F8491F901E6567E
:10015000FF4FD491F901EA57FF4FC491CC2391F09E
:1001600081110E947500EC2FF0E0EE0FFF1FE458A4
:10017000FF4FA591B491EC91ED2381E090E021F443
:1001800080E002C080E090E0DF91CF9108951F935E
:10019000CF93DF93282F30E0F901E255FF4F849190
:1001A000F901E656FF4FD491F901EA57FF4FC49188
:1001B000CC23C1F0162F81110E947500EC2FF0E0C6
:1001C000EE0FFF1FEE58FF4FA591B4919FB7F89423
:1001D000111104C08C91D095D82302C0EC91DE2B74
:1001E000DC939FBFDF91CF911F910895CF93DF9351
:1001F00090E0FC01E656FF4F2491FC01EA57FF4FC7
:100200008491882361F190E0880F991FFC01E859DF
:10021000FF4FC591D491FC01EE58FF4FA591B491C9
:10022000611109C09FB7F894888120958223888343
:10023000EC912E230BC0623061F49FB7F894888153
:10024000322F309583238883EC912E2B2C939FBFE4
:1002500006C08FB7F894E8812E2B28838FBFDF91DB
:10026000CF9108953FB7F8948091050190910601D0
:10027000A0910701B091080126B5A89B05C02F3FAA
:1002800019F00196A11DB11D3FBFBA2FA92F982FBC
:100290008827820F911DA11DB11DBC01CD0142E037
:1002A000660F771F881F991F4A95D1F708958F927F
:1002B0009F92AF92BF92CF92DF92EF92FF920E94F5
:1002C00032014B015C0185E0C82ED12CE12CF12CD0
:1002D0000E943201DC01CB0188199909AA09BB09E6
:1002E000883E9340A105B10598F321E0C21AD108D8
:1002F000E108F10888EE880E83E0981EA11CB11C6D
:10030000C114D104E104F10419F7FF90EF90DF90DC
:10031000CF90BF90AF909F908F9008959091C00024
:1003200095FFFCCF9091C1009E7F9093C100809378
:10033000C60008959091C00095FFFCCF9091C10038
:1003400091609093C1008093C60008951F920F9210
:100350000FB60F9211242F933F938F939F93AF93D8
:10036000BF938091010190910201A0910301B0918E
:1003700004013091000123E0230F2D3720F4019672
:10038000A11DB11D05C026E8230F0296A11DB11DB8
:10039000209300018093010190930201A093030137
:1003A000B09304018091050190910601A09107018D
:1003B000B09108010196A11DB11D80930501909394
:1003C0000601A0930701B0930801BF91AF919F91DF
:1003D0008F913F912F910F900FBE0F901F90189506
:1003E000789484B5826084BD84B5816084BD85B510
:1003F000826085BD85B5816085BD80916E0081601C
:1004000080936E00109281008091810082608093C1
:1004100081008091810081608093810080918000C3
:100420008160809380008091B10084608093B100EE
:100430008091B00081608093B00080917A008460E8
:1004400080937A0080917A00826080937A00809114
:100450007A00816080937A0080917A00806880932E
:100460007A001092C1008CE18093C1001092C2000A
:1004700081E08093C00086E08093C2001092C200A9
:100480001092C2001092C5008BE08093C40062E01D
:1004900087E00E94F60062E086E00E94F60061E0DC
:1004A0008DE00E94F60061E082E00E94F60062E0CA
:1004B0008BE00E94F60062E08AE00E94F60062E0B3
:1004C00089E00E94F60062E088E00E94F60030E0D9
:1004D000832E30E0932E88E00E949E00582E89E003
:1004E0000E949E00EC018AE00E949E008C018BE03D
:1004F0000E949E007C0187E00E949E005C0186E0D5
:100500000E949E006C0183E0EE0CFF1C8A95E1F7CF
:10051000000F111F000F111F0E290529CC0FDD1F21
:10052000C02BCF30D1F461E082E00E94C700AB283D
:1005300041F48EE00E949A0181E00E948E010E94A7
:100540005701CD2809F03EC08DE00E949A0181E05C
:100550000E948E010E94570135C08091C00087FF24
:10056000FCCF2091C0009091C1008091C6002C71F9
:1005700039F496959170792E612C9301282B02C045
:100580002FEF3FEF132FD22F60E082E00E94C700D1
:10059000113051F48091C000CD1302C08E7F01C094
:1005A00081608093C0000EC011110CC0D13051F495
:1005B00061E08DE00E94C7000E94570160E08DE07D
:1005C0000E94C7008114910409F485CF0E940000A5
:0605D00082CFF894FFCF7A
:00000001FF
